S010000070726F6A656374312E73726563EC
S11300000C942A000C942C020C9455020C947E023D
S11300100C9447000C9447000C9470030C941E033A
S11300200C9447030C94F5020C94CE020C94A70292
S11300300C9447000C9447000C9447000C94470020
S11300400C9447000C9447000C9447000C94470010
S11300500C94470011241FBECFE5D8E0DEBFCDBF0E
S113006010E0A0E6B0E0E0E4F7E002C005900D92F5
S1130070A038B107D9F720E0A0E8B0E001C01D9294
S1130080A239B207E1F70E949B000C949E030C94E2
S11300900000CF93C82F60E080E10E94880160E0F7
S11300A081E10E9488016C2F80E00E94090261E0D6
S11300B082E10E9488018FEC97E00197F1F700C07C
S11300C0000060E082E10E9488018FEC97E00197D4
S11300D0F1F700C00000CF9108952FE788E391E085
S11300E0215080409040E1F700C0000088E30E9466
S11300F049008FEC97E00197F1F700C000008CE015
S11301000E9449008FEC97E00197F1F700C00000CE
S113011081E00E9449008FE99FE00197F1F700C058
S1130120000086E00E9449008FEC97E00197F1F708
S113013000C00000089578940E9419020E946D0086
S11301400E949903FFCF982F969596959695877060
S1130150613031F008F4A0C0623009F44DC0089554
S11301609130B9F028F0923029F19330A1F108953B
S11301704AB321E030E0B90102C0660F771F8A95C7
S1130180E2F7CB018095942F98239ABB9BB38923E4
S11301904BC047B321E030E0B90102C0660F771FBE
S11301A08A95E2F7CB018095942F982397BB98B357
S11301B089234CC044B321E030E0B90102C0660F8A
S11301C0771F8A95E2F7CB018095942F982394BBEF
S11301D095B389234DC041B321E030E0B90102C099
S11301E0660F771F8A95E2F7CB018095942F9823A9
S11301F091BB92B389234EC09130C1F028F0923064
S113020039F19330B9F108954AB321E030E0B901EE
S113021002C0660F771F8A95E2F7CB01962F90955F
S113022094239ABB9BB3892B8BBB089547B321E0DE
S113023030E0B90102C0660F771F8A95E2F7CB015F
S1130240962F9095942397BB98B3892B88BB0895D8
S113025044B321E030E0B90102C0660F771F8A95EC
S1130260E2F7CB01962F9095942394BB95B3892BF9
S113027085BB089541B321E030E0B90102C0660FA7
S1130280771F8A95E2F7CB01962F9095942391BB23
S113029092B3892B82BB0895913099F028F0923063
S11302A0E9F0933041F108954AB321E030E0B90117
S11302B002C0660F771F8A95E2F7CB01842B8ABBB5
S11302C0089547B321E030E0B90102C0660F771FFB
S11302D08A95E2F7CB01842B87BB089544B321E0D0
S11302E030E0B90102C0660F771F8A95E2F7CB01AF
S11302F0842B84BB089541B321E030E0B90102C0EE
S1130300660F771F8A95E2F7CB01842B81BB089592
S1130310982F96959695969587706130C1F5913092
S113032091F028F09230D9F0933029F108954BB32D
S113033021E030E0B90102C0660F771F8A95E2F729
S1130340CB01842B3AC048B321E030E0B90102C0AC
S1130350660F771F8A95E2F7CB01842B3CC045B327
S113036021E030E0B90102C0660F771F8A95E2F7F9
S1130370CB01842B3EC042B321E030E0B90102C07E
S1130380660F771F8A95E2F7CB01842B40C0611179
S11303903FC09130A1F028F09230F9F0933059F138
S11303A008954BB321E030E0B90102C0660F771F16
S11303B08A95E2F7CB01809584238BBB089548B3DB
S11303C021E030E0B90102C0660F771F8A95E2F799
S11303D0CB018095842388BB089545B321E030E0A8
S11303E0B90102C0660F771F8A95E2F7CB018095A9
S11303F0842385BB089542B321E030E0B90102C0F3
S1130400660F771F8A95E2F7CB018095842382BB20
S11304100895813041F028F0823039F0833039F08A
S113042008956BBB089568BB089565BB089562BBCE
S113043008950F931F93CF9300E610E0C0E0F801F6
S113044061918F018C2F0E94A300CF5FC032B9F756
S1130450CF911F910F9108951F920F920FB60F9293
S113046011242F933F934F935F936F937F938F93B5
S11304709F93AF93BF93EF93FF93E0918400F09128
S11304808500309709F00995FF91EF91BF91AF91E5
S11304909F918F917F916F915F914F913F912F9198
S11304A00F900FBE0F901F9018951F920F920FB6CA
S11304B00F9211242F933F934F935F936F937F93E6
S11304C08F939F93AF93BF93EF93FF93E091820039
S11304D0F0918300309709F00995FF91EF91BF9156
S11304E0AF919F918F917F916F915F914F913F91C8
S11304F02F910F900FBE0F901F9018951F920F927F
S11305000FB60F9211242F933F934F935F936F93E2
S11305107F938F939F93AF93BF93EF93FF93E09158
S11305208000F0918100309709F00995FF91EF91D7
S1130530BF91AF919F918F917F916F915F914F91F7
S11305403F912F910F900FBE0F901F9018951F92FF
S11305500F920FB60F9211242F933F934F935F93F3
S11305606F937F938F939F93AF93BF93EF93FF9377
S1130570E0919000F09191000995FF91EF91BF9166
S1130580AF919F918F917F916F915F914F913F9127
S11305902F910F900FBE0F901F9018951F920F92DE
S11305A00FB60F9211242F933F934F935F936F9342
S11305B07F938F939F93AF93BF93EF93FF93E091B8
S11305C08E00F0918F000995FF91EF91BF91AF914B
S11305D09F918F917F916F915F914F913F912F9157
S11305E00F900FBE0F901F9018951F920F920FB689
S11305F00F9211242F933F934F935F936F937F93A5
S11306008F939F93AF93BF93EF93FF93E0918C00ED
S1130610F0918D00309709F00995FF91EF91BF910A
S1130620AF919F918F917F916F915F914F913F9186
S11306302F910F900FBE0F901F9018951F920F923D
S11306400FB60F9211242F933F934F935F936F93A1
S11306507F938F939F93AF93BF93EF93FF93E09117
S11306608A00F0918B00309709F00995FF91EF9182
S1130670BF91AF919F918F917F916F915F914F91B6
S11306803F912F910F900FBE0F901F9018951F92BE
S11306900F920FB60F9211242F933F934F935F93B2
S11306A06F937F938F939F93AF93BF93EF93FF9336
S11306B0E0918800F0918900309709F00995FF9145
S11306C0EF91BF91AF919F918F917F916F915F91C6
S11306D04F913F912F910F900FBE0F901F9018953F
S11306E01F920F920FB60F9211242F933F934F93A3
S11306F05F936F937F938F939F93AF93BF93EF9386
S1130700FF93E0918600F0918700309709F00995F6
S1130710FF91EF91BF91AF919F918F917F916F91D5
S11307205F914F913F912F910F900FBE0F901F90AB
S1130730189583E389B9539A549A0895F894FFCF8E
S1130740010102010000000100000000000000009F
S11307500000000000000000000000020000010092
S9030000FC
